:020000040800F2
:1000000020080020C5010008530700084B0700081E
:100010004F070008450700086908000800000000B5
:100020000000000000000000000000007F07000842
:1000300049070008000000007D070008810700084C
:10004000DF010008DF010008DF010008DF01000810
:10005000DF010008DF010008DF010008DF01000800
:10006000DF010008DF010008DF010008DF010008F0
:10007000DF010008DF010008DF010008DF010008E0
:10008000DF010008DF010008DF010008DF010008D0
:10009000DF010008DF010008DF010008DF010008C0
:1000A000DF010008DF010008DF010008DF010008B0
:1000B000DF010008DF010008DF010008DF010008A0
:1000C000DF010008DF010008DF010008DF01000890
:1000D000DF010008DF010008DF010008DF01000880
:1000E000DF010008DF010008DF010008DF01000870
:1000F000DF010008DF010008DF010008DF01000860
:10010000DF010008DF010008DF010008DF0100084F
:10011000DF01000841080008DF010008DF010008D6
:10012000DF010008DF010008DF010008DF0100082F
:10013000DF010008DF010008DF010008DF0100081F
:10014000DF010008DF010008DF010008DF0100080F
:10015000DF010008DF010008DF010008DF010008FF
:10016000DF010008DF010008DF010008DF010008EF
:10017000DF010008DF010008DF01000800000000C7
:10018000DF010008DF010008DF010008DF010008CF
:10019000DF010008DF010008DF01000800000000A7
:1001A000DF010008DF010008DF010008DFF810D0E0
:1001B00000F028FA00480047EF120008AFF3008073
:1001C000200800200648804706480047FEE7FEE773
:1001D000FEE7FEE7FEE7FEE7FEE7FEE7FEE7FEE7F7
:1001E00089070008AD01000810B5002200E0521C8C
:1001F000835C8C5CA34201D1002BF8D1D8B2E1B270
:10020000401A10BD30B50B460146002020220124C3
:1002100009E021FA02F59D4205D303FA02F5491BD4
:1002200004FA02F52844151EA2F10102F1DC30BDEA
:100230002DE9F05F0546002092469B46884606461B
:10024000814640241BE0284641464746224600F0AE
:10025000FAF953465A46C01A914110D3114618462E
:10026000224600F0E1F92D1A67EB01084F462246BD
:100270000120002100F0D8F917EB00094E41201EA3
:10028000A4F10104DFDC484631462A464346BDE876
:10029000F09F2DE9FE4F804681EA0300C00F0C4617
:1002A000009021F0004123F00045B8EB0200A94185
:1002B00005D24046214690461C460B46024623F096
:1002C0000040104347D0270DC7F30A00C3F30A517B
:1002D0000290401A019040286BDAC3F3130040F4F7
:1002E000801B0098924620B10023D2EB030A63EBF7
:1002F0000B0B01985946C0F14002504600F094F9AA
:1003000006460D4650465946019A00F0ACF910EBEE
:1003100008006141002487EA115284EAE7731A4316
:1003200040D0009A62B3019A012A4FEA075215DCC5
:10033000001B61EB02014FF0004202EA0752CDE9D7
:100340000042001C41F5801132462B4600F0ACF90A
:1003500003B0BDE8F08F40462146F9E7001B61EB92
:100360000201001C41F5801300185B412018A2F522
:10037000001747EB030140EAD570B6196D4111E053
:100380006D084FEA360645EAC0754FEA0752001B72
:1003900061EB0201001C41F5801149084FEA300071
:1003A0000019514132462B4603B0BDE8F04F00F032
:1003B0006CB90098012240000023D0EB020263EBED
:1003C000E073009821464FEAE074B8EB000061EB5F
:1003D0000401E9E783F000435BE781F0004158E75F
:1003E0002DE9FE4F81EA030404F0004421F00041AE
:1003F00000944FF0000B23F0004350EA01045ED05C
:1004000052EA03045BD0C3F30A54C1F30A552C44E7
:10041000A4F2F3340194A0FB0254C1F3130141F49C
:100420008011C3F3130343F4801301FB024400FB68
:10043000034E840A970A44EA815447EA8357A4FB8F
:10044000076802958D0A05FB07854FEA932C04FB8C
:100450000C542705029D4FEA065847EA1637B5EBBC
:1004600008056EEB070C870E920E47EA811742EAE9
:100470008312A7FB0201B6EB0B0164EB00042B0D0A
:1004800043EA0C335E1844EB1C50DA465146E7FB56
:100490000201C5F313044FEA0B3343EA14534FEA46
:1004A0000432019C43EA0603A4F10C040294009C6C
:1004B000CDE900B400F0F8F803B0BDE8F08F0020FB
:1004C0000146F9E72DE9F04D81EA030404F0004B01
:1004D00021F0004514464FF0000A23F0004150EA95
:1004E000050220D054EA01021DD0C5F30A57024686
:1004F000C5F31303C1F31300C1F30A5640F480158A
:1005000043F48013A7EB0608101BD64608F2FD380B
:1005100073EB050002D308F1010801E092185B417A
:10052000B8F1000F03DA00200146BDE8F08D00208D
:100530004FF48011064684460EE0171B73EB050747
:1005400005D3121B63EB050306434CEA010C490873
:100550004FEA300092185B4150EA0107EDD152EAB0
:10056000030012D082EA040083EA0501084305D0A3
:10057000101BAB4106D20122002306E000224FF0FF
:10058000004302E06FF0010253101AEB06004CEB3F
:10059000085110EB0A0041EB0B01BDE8F04D00F0F3
:1005A00074B8C1F30A52C1F3130140F2FF3341F4AE
:1005B00080119A4202DA00200146704740F233432C
:1005C0009A42A2F2334202DC524200F03CB800F000
:1005D0002BB8000030B5041E71F1000404DB4FF0AD
:1005E0000044404264EB0101141E73F1000405DB7A
:1005F0001C464FF00043524263EB0403994208BF8C
:10060000904230BD064C074D06E0E06840F0010323
:1006100094E8070098471034AC42F6D3FFF7CAFDC0
:10062000F02A0008102B0008202A04DB203A00FAE8
:1006300002F1002070479140C2F1200320FA03F339
:10064000194390407047202A04DB203A21FA02F037
:100650000021704721FA02F3D040C2F120029140FC
:10066000084319467047202A06DBCB17203A41FA87
:1006700002F043EAE07306E041FA02F3D040C2F12F
:100680002002914008431946704710B5141E73F1BB
:10069000000408DA401C41F1000192185B411A4342
:1006A00001D120F0010010BD2DE9F04D92469B468E
:1006B00011B1B1FA81F202E0B0FA80F22032904634
:1006C000FFF7B2FF04460F4640EA0A0041EA0B0179
:1006D00053465A46084313D0114653EA010019D035
:1006E000C8F140025046FFF7AEFF05460E465046A1
:1006F00059464246FFF798FF084305D0012004E021
:1007000020463946BDE8F08D0020054346EAE076F4
:100710002C4337430A986305E40AA0EB0800002243
:10072000FD0A44EA47540A3002D500200146E9E7B1
:10073000010510196941DDE9084500196941BDE865
:10074000F04DA2E700BFFEE7704700BFFEE700BF25
:10075000FEE7704710B5002807DA0A07140E054AAD
:1007600000F00F031B1FD45403E00A07130E024AC4
:10077000135410BD18ED00E000E400E0704770472E
:1007800010B500F0FFFC10BD08B52948006840F422
:100790007000274908602748006840F0010025499B
:1007A000086024480830006840F080002149083182
:1007B00008600020009002E00098401C00904CF27D
:1007C000503100988842F7D31A480830006840F04A
:1007D00090001849083108600020009002E000985D
:1007E000401C00904CF2503100988842F7D3002012
:1007F00010490831086000BF0E480830006800202A
:100800000028F9D10B4800680B49084009490860E5
:100810000A48091D0860081F006820F48020091F8D
:100820000860002003490C31086001F05DFE08BD3E
:1008300088ED00E000380240FFFFF6FE1030002493
:1008400010B50521064801F07CFF38B1044801F0DD
:10085000FBFEC4B22146034801F010FB10BD0000AE
:10086000005000409400002000BFFEE70FB4054B8D
:1008700010B503A9044A029800F0DAF810BC5DF83C
:1008800014FB00009D1100089000002002E008C841
:10089000121F08C1002AFAD170477047002001E0FA
:1008A00001C1121F002AFBD1704700002DE9FF5F34
:1008B00082B00021DDE90430020DDDF840B00343D1
:1008C00018D044F61050A2F2FF324243151411988A
:1008D00001281FD0A5EB0B00401C5FEA000A4FF077
:1008E00000064E4FDFF83891B046504615D5CAF194
:1008F000000413E0119801244AA3012801D16FEAF2
:100900000B010298119AC0E90031C0E9024206B019
:10091000BDE8F09FCBF10000DFE704460021404A2C
:10092000491842EB0450CDE9001012E0E00707D06F
:1009300032463B4640464946FFF752FD80468946CF
:1009400032463B4610461946FFF74AFD06460F461B
:100950006410002CEAD1DDE90401DDE90023BAF1DD
:10096000000F06DAFFF73CFD42464B46FFF738FD25
:1009700005E0FFF7A7FD42464B46FFF7A3FD0446FF
:100980000E460022284BFFF725FE03D84FF0FF301C
:10099000014607E00022254B20463146FFF779FC4F
:1009A000FFF7FFFD102409E0002C0ADB0A220023D8
:1009B000FFF73EFC039B30321A55641E50EA0102D9
:1009C000F2D1641C039AC4F111031444119A012A50
:1009D00003D0012208430DD10AE0084304D00020CF
:1009E0004FF0110B119072E7A3EB0B056D1E0DE09C
:1009F0005B4504DD4FF0000205F1010504E003DA78
:100A00004FF00002A5F10105002AECD002981199DF
:100A1000C0E90231C0E9004579E700000000144058
:100A20000000F03F300000000000F0430000E03F15
:100A30002DE9FF4F95B09A46884606460025EEE11F
:100A4000252877D100242746F94A0121039400E0A4
:100A5000044316F8013F203B01FA03F01042F7D19E
:100A600030782A2811D06FF02F033078A0F13002AF
:100A7000092A16D8039A44F0020402EB820203EB1F
:100A800042021044761C0390EFE758F8042B0392BF
:100A9000002A03DA504244F40054039044F0020464
:100AA000761C30782E2816D116F8010F44F0040475
:100AB0002A280DD06FF02F023078A0F13003092BD7
:100AC00009D807EB870302EB4303C718761CF3E74B
:100AD00058F8047B761C30786C280FD006DC4C2844
:100AE00017D068280DD06A2814D104E0742810D0DB
:100AF0007A280FD10DE044F400140AE044F4801485
:100B000001E044F440147278824202D104F580146A
:100B1000761C761C307866280BD013DC582877D0EA
:100B200009DC002875D04528F6D04628F4D047289F
:100B30001AD193E118E0632835D0642879D065286C
:100B400012D18BE1702873D008DC6728F1D06928B6
:100B50006FD06E280DD06F2806D1ACE073282CD052
:100B6000752874D0782853D05246179990476D1C39
:100B700054E1C4F30250022809D003280DD0D8F85C
:100B8000001004280DD00D6008F1040846E1D8F8E3
:100B90000010EA17C1E90052F6E7D8F800100D80FE
:100BA000F2E70D70F0E718F8041B8DF80010002034
:100BB0008DF80100EB46012003E058F804BB4FF02C
:100BC000FF3061074FF0000102D40DE009F101018F
:100BD0008946B9420FDA8145F8DB1BF80910002974
:100BE000F4D108E009F1010189468142FADB1BF8E2
:100BF00009100029F6D103985346A0EB09072146B6
:100C00003846179A00F080FA284400EB090507E0FF
:100C100044E008E10DE01BF8010B5246179990479C
:100C2000B9F10109F7D2534621463846179AF2E046
:100C300039E00A21C4F302524FF0000B0091022A5E
:100C400006D058F8040BC117032A09D00AE023E0A4
:100C500008F1070020F00702F2E80201904605E0E3
:100C600000B2C117042A01D140B2C117002906DA27
:100C70000A460021404261EB02012D2202E02205DA
:100C800004D52B228DF80420012203E0E20701D0D5
:100C90002022F7E7914657E00A2100E010214FF0AB
:100CA000000B00910BE010214FF0000B44F0040406
:100CB0000827009103E008204FF0000B0090C4F3D8
:100CC0000252022A05D058F8040B0021032A08D04A
:100CD00008E008F1070020F00702F2E80201904660
:100CE00003E080B2042A00D1C0B24FF0000922070D
:100CF0002AD53278702A07D0DDF800C08CF0100CAD
:100D00005CEA0B0C05D00EE040228DF80420012295
:100D100008E050EA010306D030238DF804308DF846
:100D2000052002229146009B83F0080353EA0B033F
:100D30000AD150EA010201D1620705D530228DF8AF
:100D400004204FF001097F1E3278582A04D039A2BE
:100D50000C920CAA02920BE03BA2F9E75B46009AC8
:100D6000FFF766FA0C9B9B5C029A521E029213706C
:100D700050EA0102F2D1029804A9081A00F1200BEE
:100D8000600702D524F4803400E001275F4502DDCE
:100D9000A7EB0B0000E0002000EB0B010090039894
:100DA0004944401A0390E00306D453462146179A5B
:100DB000039800F0A9F90544002706E001A852466F
:100DC000C05D179990476D1C7F1C4F45F6DBE00313
:100DD0000CD553462146179A039800F095F905441F
:100DE00004E030205246179990476D1C0099481E28
:100DF00000900029F5DC08E002980299524600783C
:100E0000491C0291179990476D1CBBF10001ABF191
:100E1000010BF1DC5BE100F065F90544761C3078EC
:100E200000287FF40DAE19B02846BDE8F08F000011
:100E300009280100303132333435363738396162B0
:100E40006364656600000000303132333435363774
:100E5000383941424344454600000000600700D451
:100E6000062708F1070020F00700F0E8022380467B
:100E700003F0004C5FEA0C0001D097A009E02005C8
:100E800001D596A005E0E00701D095A001E0AFF202
:100E90004C001390307823F0004365280CD006DC1A
:100EA000452809D046281DD047287FD13BE0662839
:100EB00018D067287AD136E00021112F01DB1120EC
:100EC00000E0781CCDE9000104A90CA8FFF7EEFCB6
:100ED000DDE90D010C9A4FF0000B07F101091092AA
:100EE00000914EE04FF000400097CDE9011004A9B9
:100EF0000CA8FFF7DBFCDDE90D020C9B0F994FF00E
:100F0000000B91461093009211B9791C00EB010976
:100F1000B7EB090003D4C0F1FF3B07F10109A9EBCE
:100F20000700019042E0012F00DA01270021112F74
:100F300001DD112000E03846CDE9000104A90CA82C
:100F4000FFF7B4FCDDE90D010C9A00914FF0000BA6
:100F5000B946109221070FD4009A4A4503DA914608
:100F600001E0A9F10109B9F1010F05DD109AA9F11C
:100F70000101515C3029F4D0B84202DA10F1040FBB
:100F800003DA0121CDE9011010E0002803DC8344DD
:100F9000A9EB000102E0411C494500DD8946A0EBB8
:100FA0000B00401C01904FF000400290200705D438
:100FB0000198484502DB4FF0FF30019000208DF88A
:100FC0004B0002980DF14B07B0F1004F25D00220E5
:100FD0000C902B200D90029800280CDA40420290D1
:100FE0002D200D9007E00A210298FFF70BF9303110
:100FF000029007F8011D0C99481E0C900029F2DCA4
:1010000002980028EFD1791E0D980870307800F012
:10101000200040F0450007F8020D11A8C01BC01DBC
:1010200002901398007800B1012000EB09010198AB
:1010300001EBE071029801440398401A401E0390AE
:10104000E00306D453462146179A039800F05CF853
:1010500005441398007818B15246179990476D1CB3
:10106000E00323D553462146179A039800F04CF825
:1010700005441BE0BBF1000F07DB0098584504DD79
:101080001098179910F80B0001E01799302052467C
:10109000904701980BF1010B401E05F101050190ED
:1010A00004D12E205246179990476D1CB9F10001CA
:1010B000A9F10109DEDC05E017F8010B524617998A
:1010C00090476D1C0299481E02900029F4DC53469B
:1010D0002146179A03989EE62D0000002B00000081
:1010E000200000002DE9F041044600251E46174669
:1010F000880404D405E039462020B0476D1C641EE6
:10110000F9D52846BDE8F0812DE9F04104460025D7
:101110001E469046C80301D5302700E020278804EA
:1011200004D505E041463846B0476D1C641EF9D52C
:101130002846BDE8F081000070B504460D466319ED
:101140002A46214602A0FFF791FB601970BD0000FE
:101150002564202B202564203D203A2025640D0A9B
:101160000000000010B501F0FBFA04480449C1F882
:101170007001084600F0F0FF10BD00004125000896
:10118000940000200448006820B103480068401E15
:1011900001490860704700000000002070B5044657
:1011A0000D46E0B201F0CCF9204670BD10B5044602
:1011B000104931F8140000F0A7F90F4951F8243014
:1011C0000E4951F824000022012100F048F80A4994
:1011D00051F82430094951F824000222002100F07E
:1011E00065F8054850F82400044951F82410886235
:1011F00010BD00002C00002014000020080000207A
:10120000F0B503461C6A5D6A00200DE001268640A9
:1012100016403EB187000F26BE40B443860001FA57
:1012200006F63443461CB0B20828EFD3082011E07C
:101230000126864016405EB1A0F10806B7000F26D1
:10124000BE40B543A0F10806B60001FA06F63543E4
:10125000461CB0B21028EBD31C625D62F0BDF0B545
:1012600004460D4616462168E268002019E0012771
:1012700087401F409FB14FEA400C032707FA0CF745
:10128000B943470005FA07F739434FEA400C0327F3
:1012900007FA0CF7BA43470006FA07F73A43471C28
:1012A000B8B21028E3D32160E260F0BDF0B50C467F
:1012B0001546012C03D146681E43466002E046688D
:1012C0009E434660826800210DE001268E401E404C
:1012D0003EB14F000326BE40B2434E0005FA06F66B
:1012E00032434E1CB1B21029EFD38260F0BD002012
:1012F000FFF75CFF0120FFF759FF0220FFF756FFC1
:10130000FFF730FF01F0F4F800BFFEE72DE9F041F0
:1013100003460D46164600240027A0462A480068CA
:1013200000F4E060B0F5E06F03D100BF4FF00408B7
:1013300030E02548006800F4E060B0F5C06F03D1EC
:1013400001274FF0030825E01F48006800F4E06023
:10135000B0F5A06F02D10227B8461BE01A4800681A
:1013600000F4E060B0F5806F03D103274FF001086F
:1013700010E01548006800F4E060B0F5407F03D14C
:1013800004274FF0000805E04FF4A06000F020F8BB
:101390000227B846C7F1040005FA00F4C8F10401B9
:1013A0000F20C8403040044324010848C45403F0CF
:1013B0001F01012088405911890001F1E021C1F885
:1013C0000001BDE8F08100000CED00E000E400E069
:1013D00002490143024A1160704700000000FA050B
:1013E0000CED00E02DE9F04F8CB0064600200A908D
:1013F0003EA090E8004CC068CDE905BECDF810A035
:1014000007900FF2EC0ADAE9000ACDE9020A0FF2BE
:10141000E00ADAE9000ACDE9000A38480068C0F3BA
:1014200081000B900B9820B1012804D0022828D10C
:1014300003E0334927E0334925E03048001F0068C6
:1014400000F03F072D48001F0068C0F3881C2B48A0
:10145000001F0068C0F30140401C4FEA40092748C4
:10146000001F006800F48008B8F5800F01D1254BFB
:1014700000E0234BB3FBF7F000FB0CF0B0FBF9F1FD
:1014800001E01F4900BF00BF1C480068C0F30314FF
:1014900004A8055D21FA05F218480068C0F382240B
:1014A00002A8055D22FA05F0099014480068C0F30F
:1014B00042341DF8045022FA05F0089036B1012E8E
:1014C00006D0022E06D0032E0AD106E00A9108E0CB
:1014D0000A9206E009980A9003E008980A9000E052
:1014E00000BF00BF0A980CB0BDE8F08F00000000FC
:1014F0000000000001020304060708090838024042
:101500000024F40040787D01074A02EB9011D1F8E5
:10151000001800F01F0301229A401143024B03EB15
:101520009012C2F80018704700300240074A02EBE0
:101530009011D1F8001800F01F0301229A40914346
:10154000024B03EB9012C2F80018704700300240C3
:10155000074A02EB9011D1F8001800F01F03012296
:101560009A401143024B03EB9012C2F800187047E7
:10157000003002400146002009E0074A52F82020CE
:101580001AB9054A42F820107047421C10B20528CB
:10159000F3DB00BFF8E700000C04002070B5044640
:1015A0000D4694F86A0100F00300012836D00228A5
:1015B00045D1412D06D0422D09D0432D0CD0442DCC
:1015C00023D117E00021204600F022FD1EE001217A
:1015D000204600F01DFD19E0208FE18E884208DAD8
:1015E000228F201D815C204600F0DCF8208F401CFB
:1015F00020870BE0208F002806DD0821204600F020
:10160000D1F8208F401E208700E000BF00BF94F873
:101610006A0120F0030084F86A0111E05B2D07D114
:1016200094F86A0120F00300801C84F86A0105E048
:1016300094F86A0120F0030084F86A0100E000BF1A
:1016400000BF70BD90F86A1121F00301491C80F8B9
:101650006A11704770B50446E08E00B970BD208FE6
:10166000E18E88420ED1E08E401EE086208F401E23
:1016700020870021E28E201D81540121204600F0A8
:101680006BF841E0208F00283EDD00200AE0218F2A
:101690000A18211D8B5C218F0144491E221D5354C1
:1016A000411C08B2E18E228F891A8142EFDCE08E64
:1016B000401EE086208F401E20870021E28E201DE4
:1016C00081540821204600F06DF8208F05B206E015
:1016D000201D415D204600F065F8681C05B2E08ED3
:1016E000A842F5DC2021204600F05CF8E08E218F36
:1016F000401A401C05B205E00821204600F052F8CF
:10170000681E05B2002DF7DC00BFA7E710B500F09A
:101710009BFB044604B910BD02A1204600F02CF842
:1017200000BFF8E71B5B324A1B5B3148000000003A
:1017300070B50446E08E218F401A05B205E02021E5
:10174000204600F02FF8681E05B2002DF7DCE18E70
:10175000204600F001F870BD70B505460C4603E068
:1017600004A1284600F008F8201EA4F101018CB263
:10177000F6D170BD0820080070B505460C4600265D
:10178000D5F8700108B9002070BD06E014F8010B0F
:10179000D5F870118847701C86B220780028F5D1E2
:1017A0003046F1E770B504460D46D4F8700100B933
:1017B00070BD2846D4F87011884700BFF8E70000D4
:1017C0002DE9F04105460C46D5F85C7107EB041095
:1017D00001682846FFF7D0FFC0F1160006B2002EC0
:1017E00001DD304600E00420064600BF0BA128467C
:1017F000FFF7C2FF701E00B2061EF7D108A12846EF
:10180000FFF7BAFF07EB041081682846FFF7B4FF23
:1018100004A12846FFF7B0FFBDE8F08120000000DA
:101820002D2D00000D0A000070B504460D4604A1E0
:101830002046FFF7A1FF2946204600F007F870BDBB
:1018400052657475726E3A20000000002DE9FE4367
:1018500080460D4629A1D1E900028968CDE9012120
:1018600000902C460A27002D04DA27A14046FFF7F6
:1018700083FF64420DE00A20B4FBF0F100FB11404D
:101880003030791EC9B20F460DF801000A20B4FBB2
:10189000F0F4002CEFD10DEB07000DB9012200E0B0
:1018A0000022811A4046FFF767FF2C46002D00DA20
:1018B00000BF082700208DF808000FE004F00F0695
:1018C000092E02DD06F1570001E006F13000C1B239
:1018D000781EC0B207460DF800102409002CEDD187
:1018E0000AA14046FFF748FF69464046FFF744FF1C
:1018F00008A14046FFF740FFBDE8FE83303030309E
:1019000030303030303000002D0000002C20307896
:10191000000000000D0A00002DE9F05F04460025DC
:1019200000274FF00108A946E08E28B9204621681B
:10193000FFF722FFBDE8F09F0021E28E501CE086F9
:10194000201D8154204600F0C9FB002038E05FB91B
:10195000211D095C20292CD0211D095C092928D0D2
:10196000211D095C2C2924D0211D095C09B3211DEE
:10197000095C222904D10FB9012100E000210F46A2
:10198000B8F1010F0AD1211D0B1829466A1CD5B2E6
:1019900004F13C0242F821304FF00008211D095C9F
:1019A0005C290BD1211D0144497839B1411C88B211
:1019B00004E00022211D0A544FF00108411C88B2A6
:1019C000E18E8142C3DC0020E086208725B92046D5
:1019D0002168FFF7D1FEADE72FA12046FFF7CCFE2F
:1019E000D4F85C612DA1E06BFEF7FEFBB0B994F872
:1019F0006A0120F00400001D84F86A0104F13C0132
:101A0000284600F095FA94F86A0120F0040084F862
:101A10006A0120462168FFF7AFFE8BE74FF0000B0D
:101A200027E006EB0B121168E06BFEF7DDFBE0B977
:101A30004FF0010994F86A0120F00400001D84F8B9
:101A40006A0106EB0B1104F13C024868294600F0DC
:101A500036F9824694F86A0120F0040084F86A019D
:101A600051462046FFF7E0FE07E00BF101001FFAA8
:101A700080FBB4F860015845D3DC00BFB9F1000F1A
:101A800004D1084881692046FFF776FE2046216888
:101A9000FFF772FE00BF4DE70D0A000068656C702D
:101AA000000000006C00002010B502461146002026
:101AB0000B78302B07D14B78782B02D04B78582BF2
:101AC00001D103200EE00B78302B07D14B78622B2D
:101AD00002D04B78422B01D1012003E00B78302B50
:101AE00000D1022006E00B782E2B03D14B780BB1EE
:101AF000042003E011F8014B002CF4D100BF10BD0D
:101B00000246511C00200B785C2B1AD14B786E2BAF
:101B10000ED004DC302B0FD0622B0FD104E0722BDF
:101B200004D0742B0AD105E0082009E00D2007E05D
:101B30000A2005E0092003E0002001E0487800BF0A
:101B400000E00878704700002DE9F84F05464FF097
:101B5000000A4FF00A0B2C460020009001260027B7
:101B60009FED330A10EE109A804628782D2800D178
:101B7000B61E711C09B9012100E000214819FFF7C8
:101B800093FF8246BAF1010F0FD0BAF1020F07D0CE
:101B9000BAF1030F0ED14FF0100B022000900AE0B3
:101BA0004FF0080B0120009005E04FF0020B0220DF
:101BB000009000E000BF00BF00982918701C08B911
:101BC000012000E000200C1811E020782E2803D11D
:101BD0004FF00108641C0AE0207800F01AF907FBB6
:101BE0000B0708EB88004FEA4008641C00BF207810
:101BF0000028EAD1BAF1040F17D1B8F1000F14D0C0
:101C000000EE107AB8EE401A00EE108AB8EE400AE4
:101C1000C1EE000A00EE106AB8EEC00A20EE800A9B
:101C200010EE109A4846BDE8F88F07FB06F0FAE779
:101C30000000000010B504462078272805D1607800
:101C400018B12046FFF75CFF10BD20782D2805D085
:101C50002078302806DB2078392803DC2046FFF77F
:101C600073FFF1E7207818B1204600F003F8EBE7A6
:101C70000020E9E770B50446254600262078222892
:101C800002D1601C0446054613E028785C2805D183
:101C9000681EFFF735FFA0556D1C07E02878222845
:101CA00002D10020A05501E02878A0556D1C701CC1
:101CB00086B228780028E8D1A055204670BD2DE9CD
:101CC000F04F85B005460E461446092E79D2DFE85E
:101CD00006F09D05090F1A2A3F597900A84705B05B
:101CE000BDE8F08F6068FFF7A5FF0746A847F6E755
:101CF000A068FFF79FFF07466068FFF79BFF8046DD
:101D00003946A847EBE7E068FFF794FF0746A0686D
:101D1000FFF790FF80466068FFF78CFF81463A46E8
:101D20004146A847DBE72069FFF784FF0746E068E4
:101D3000FFF780FF8046A068FFF77CFF8146606860
:101D4000FFF778FF82463B4642464946A847C6E72A
:101D50006069FFF76FFF07462069FFF76BFF80465A
:101D6000E068FFF767FF8146A068FFF763FF8246E0
:101D70006068FFF75FFF834643464A465146009737
:101D8000A847ACE7A069FFF755FF07466069FFF772
:101D900051FF80462069FFF74DFF8146E068FFF75D
:101DA00049FF8246A068FFF745FF83466068FFF75A
:101DB00041FF4B4652465946CDE900870490A8475B
:101DC0008DE723E0E069FFF735FF0746A069FFF7DD
:101DD00031FF80466069FFF72DFF81462069FFF7DC
:101DE00029FF8246E068FFF725FF8346A068FFF7DA
:101DF00021FF04906068FFF71DFF53465A46CDE966
:101E00000098CDE902700499A84768E74FF0FF30C9
:101E100065E70146302905DB392903DCA1F13000F3
:101E2000C0B27047612905DB662903DCA1F15700C8
:101E3000C0B2F6E7412905DB462903DCA1F13700F2
:101E4000C0B2EEE70020ECE7002111E00A4850F8AC
:101E5000210058B1084850F8210090F86A01C0F3F9
:101E6000800018B1044850F821007047481C01B2A6
:101E70000529EBDB0020F8E70C0400202DE9F041F8
:101E800004460E4694F86A0100F0030000283CD195
:101E90008046D4F86471002510E017F83500B04290
:101EA0000AD107EBC500406820B107EBC5004168C7
:101EB000204688474FF00108681C05B2B4F8680155
:101EC000A842EADCB8F1000F17D1002513E017484B
:101ED00010F83500B0420CD1144800EBC500406842
:101EE00028B1124800EBC5004168204688474FF0F2
:101EF0000108681C05B2062DE9D3B8F1000F03D123
:101F00003146204600F06AF903E031462046FFF7EB
:101F100045FB092E01D1012000E0002094F86A1150
:101F200060F3C30184F86A11BDE8F0815428000809
:101F30002DE9F04107468846FFF786FF05460DB9B3
:101F4000BDE8F081012F11D12A4801692846FFF729
:101F500013FC002405E021462846FFF731FC601CF5
:101F600084B2B5F86001A042F5DC40E0022F3ED11A
:101F7000D5F85C61002430E006EB04121168D8F853
:101F80000400FEF731F930BB1BA12846FFF7F4FB34
:101F900006EB041001682846FFF7EEFB1AA128465D
:101FA000FFF7EAFB06EB041081682846FFF7E4FB25
:101FB00016A12846FFF7E0FB06EB0410C06848B105
:101FC00006EB0410C1682846FFF7D6FB0FA1284690
:101FD000FFF7D2FBB4E7601CC4B2B5F86001A042C1
:101FE000CADC044881692846FFF7C6FB00BF00BF72
:101FF000A6E700006C000020636F6D6D616E6420C9
:1020000068656C70202D2D003A0D0A000D0A000045
:1020100070B504460D4635BB04F5AB74B4F9041035
:1020200088B2401E00B2A0802088B4F90220A4F536
:10203000AB74904202DDB4F8560101E0B4F95801E6
:10204000404281421EDCB4F85601B4F9581188426E
:1020500002DDB4F8560101E0B4F95801404200B283
:10206000A4F85A010EE0012D0BD1B4F85A01401C1E
:1020700000B2A4F85A01002804DD0020A4F85A0197
:1020800070BDFDE72046FFF753FBB4F85A0118B9BD
:102090000020E08620871FE0B4F95801401DB4F904
:1020A0005A110844052190FBF1F201FB120000EBEC
:1020B000C00101EB001104F15C0000EB4106314668
:1020C000201D00F007F9E08600B9D9E7E08E2087EF
:1020D000211D2046FFF750FB00BFD1E710B5044695
:1020E0000020A4F85A01B4F95811491E01EBC102AD
:1020F00002EB011204F15C0101EB4200211DFEF72D
:1021000073F800B910BDB4F9581101EBC10202EB2C
:10211000011204F15C0101EB4200211D00F0DAF82C
:1021200028B1B4F85801401C00B2A4F85801B4F822
:102130005601401C80B2A4F85601052802DD052096
:10214000A4F85601B4F95801052802DB0020A4F8D0
:10215000580100BFD6E7000010B504460020E08615
:102160002087A4F85601A4F85801A4F85A0194F85D
:102170006A0120F0030084F86A0194F86A0120F0F3
:10218000040084F86A0194F86A0120F0080084F8D9
:102190006A010CA020602046FFF7ECF90C480168AA
:1021A0002046FFF7E9FA20462168FFF7E5FA0948DB
:1021B000C4F85C0108480749401AC0F30F10A4F89E
:1021C000600110BD0D0A6C65747465723E3E0000BE
:1021D0006C000020102B0008402B000870B504464E
:1021E0000D4605B970BDE08E31284ADAE08E218FA8
:1021F00088420CD1E18E481CE086201D4554208F7A
:10220000401C208729462046FFF7CCFA48E0E18EA3
:10221000228F891A08B20AE0218F0144491E221D2B
:10222000525C218F0B18211DCA54411E08B2002890
:10223000F2DC218F481C2087201D45540021E08EB0
:10224000401C82B2E286201D8154208F401E06B2BF
:1022500006E0201D815D2046FFF7A4FA701C06B23F
:10226000E08EB042F5DCE08E218F401A06B205E028
:1022700008212046FFF796FA701E06B2002EF7DC02
:102280000EE00848C1692046FFF776FA204621682B
:10229000FFF772FA211D2046FFF76EFAE08E2087C5
:1022A00000BF9FE76C00002030B502460B460020BF
:1022B000002108E0545C5D5CAC4200D008E0441CA6
:1022C000A0B24C1CA1B2545C14B15C5C002CF1D1E6
:1022D00000BF30BD0246002003E00B5C1354431CDA
:1022E00098B20B5C002BF8D1135470472DE9F047DE
:1022F00004464FF0320A4FF000080025D4F85C7114
:10230000E08E002859D00021E28E201D8154002645
:1023100028E007EB06100168201DFFF7C5FFE18EDE
:1023200088421DD1C5B1012D03D12FA12046FFF751
:1023300023FA41462046FFF743FA07EB06121168DD
:1023400007EB08121068FFF7AFFF8146CA4501DDB1
:10235000484600E0504682461FFA86F8681C85B25F
:10236000701C06B2B4F86001B042D2DC0DB9BDE811
:10237000F087012D02D12046FFF7DAF935B107EBDE
:1023800008100168201DFFF7A5FFE086012D09DD7B
:1023900041462046FFF714FA20462168FFF7ECF982
:1023A000A4F836A00021E28E201D8154E08E208703
:1023B000211D2046FFF7E0F914E094F86A0120F0AF
:1023C0000400001D84F86A0100210120FFF7B0FD20
:1023D00094F86A0120F0040084F86A01204621681C
:1023E000FFF7CAF900BFC2E70D0A00000020002174
:1023F0003A4A126842F48032384B1A6000BF401CDF
:10240000364A126802F4003119B94FF6FF72904251
:10241000F5D1324A126802F400320AB900BFFEE771
:102420002E4A4032126842F080522C4B40331A60E0
:102430002B4A126842F44042294B1A60274A08325C
:102440001268264B08331A601A46126842F400429A
:102450001A601A46126842F4A0521A60214A1B1FE1
:102460001A601A1F126842F080721B1F1A6000BFA8
:102470001A4A126802F00072002AF9D0184A12684B
:1024800042F48032164B1A6000BF154A526802F4BB
:102490008032002AF9D0124A126842F40032104BFE
:1024A0001A6000BF0E4A526802F40032002AF9D0C6
:1024B0000A4A0832126822F00302084B08331A60F5
:1024C0001A46126842F002021A6000BF034A08323C
:1024D000126802F00802002AF8D070470038024063
:1024E000007000401964400910B5FFF77FFF10BD70
:1024F00010B5124800684FF47A71B0FBF1F4601E19
:10250000B0F1807F01D301200FE0601E4FF0E02189
:1025100048610F214FF0FF30FEF71CF900204FF00B
:10252000E021886107200861002008B100BFFEE7B4
:102530000021481EFEF70EF910BD00000400002027
:1025400010B504462146054800F083F800BF072176
:10255000024800F0F6F80028F9D010BD0050004005
:102560002DE9F04704460D460027B846B946002637
:102570003349601A8C4235D00CDC32482044E8B133
:10258000B0F5806F1FD0B0F5006F21D0B0F5406F6F
:1025900032D122E0B0F5806F29D0B0F5184F03D0CA
:1025A000B0F51C4F28D104E00320FEF71BFF0746BF
:1025B00023E00320FEF716FF07461EE00220FEF789
:1025C00011FF074619E00220FEF70CFF074614E052
:1025D0000220FEF707FF07460FE00220FEF702FF8A
:1025E00007460AE00220FEF7FDFE074605E002204E
:1025F000FEF7F8FE074600E000BF00BFE06800F409
:10260000004070B1780000EB5500B0FBF5F64FF6D6
:10261000F07006EA0008C6F3420948EA0900A06023
:102620000CE007EB5500B0FBF5F64FF6F07006EA4C
:10263000000806F00F0948EA0900A060BDE8F0872D
:102640000078004000BCFFBF01464868C0F30800A6
:102650007047C1F3080242607047000010B504469D
:102660003349601A8C424DD00CDC32482044E0B132
:10267000B0F5806F22D0B0F5006F31D0B0F5406F6B
:1026800052D136E0B0F5806F45D0B0F5184F03D089
:10269000B0F51C4F48D11AE040F60410FEF758FF81
:1026A00040F60410FEF742FF3FE040F61100FEF74F
:1026B0004FFF40F61100FEF739FF36E040F61200FA
:1026C000FEF746FF40F61200FEF730FF2DE040F621
:1026D0000510FEF73DFF40F60510FEF727FF24E04A
:1026E00040F61300FEF734FF40F61300FEF71EFF1E
:1026F0001BE040F61400FEF72BFF40F61400FEF737
:1027000015FF12E040F61E00FEF722FF40F61E0005
:10271000FEF70CFF09E040F61F00FEF719FF40F638
:102720001F00FEF703FF00E000BF00BF10BD000068
:102730000078004000BCFFBFC16841F40051C16097
:10274000704710B5024602EB9110006801F01F04BB
:102750000123A340184008B1012010BD0020FCE770
:1027600010B540F60240FEF7CFFE40F60340FEF7FC
:10277000CBFE41F21400FEF7C7FE4FF48052082151
:102780001F48FEF73DFD042208211E48FEF738FDD4
:102790004FF48053012202211948FEF760FD4FF4E7
:1027A0008053022200211648FEF780FD04230122F7
:1027B00002211448FEF753FD042302220021114890
:1027C000FEF774FD1048FFF749FF4FF4E1310E4862
:1027D000FFF7C6FE08210C4800F02DF804210A4836
:1027E00000F021F840F20531074800F00FF8002210
:1027F00002213520FEF78AFD0348FFF79DFF10BD3B
:1028000000080240000C02400050004010B500EBF0
:102810009112126801F01F040123A3401A4300EB38
:1028200091131A6010BD0A460021C16821F004010D
:102830001143C16070470A460021C16821F00801B8
:102840001143C160704761646400616464206E7507
:102850006D0000000A000000191900080D000000BA
:102860001919000809000000ED2200080800000006
:10287000551600087F000000551600081B000000D8
:102880004516000868656C7000636F6D6D616E645D
:102890002068656C700068656C70205B636F6D6D9F
:1028A000616E645D202D2D73686F772068656C7094
:1028B00020696E666F206F6620636F6D6D616E6458
:1028C00000636C7300636C65617220636F6D6D6192
:1028D0006E64206C696E65000D0A434F4D4D414E8C
:1028E00044204C4953543A0D0A0D0A000D0A564132
:1028F000524941424C45204C4953543A0D0A0D0A65
:10290000000000000D0A0D0A2B3D3D3D3D3D3D3DC3
:102910003D3D3D3D3D3D3D3D3D3D3D3D3D3D3D3DE7
:102920003D3D3D3D3D3D3D3D3D3D3D3D3D3D3D3DD7
:102930003D3D3D3D3D3D3D3D3D3D3D3D3D3D3D3DC7
:102940003D3D2B0D0A7C202020202020202020200F
:1029500020202020202028432920434F505952492D
:102960004748542032303139204C657474657220E8
:102970002020202020202020202020202020207CFB
:102980000D0A7C2020202020202020202020202014
:102990002020202020204C657474657220736865A7
:1029A0006C6C2076322E302E3820202020202020E3
:1029B0002020202020202020202020207C0D0A7C88
:1029C00020202020202020202020202020202042E5
:1029D00075696C643A204A616E20323020323032A0
:1029E000322032313A33313A353320202020202032
:1029F0002020202020202020207C0D0A2B3D3D3D42
:102A00003D3D3D3D3D3D3D3D3D3D3D3D3D3D3D3DF6
:102A10003D3D3D3D3D3D3D3D3D3D3D3D3D3D3D3DE6
:102A20003D3D3D3D3D3D3D3D3D3D3D3D3D3D3D3DD6
:102A30003D3D3D3D3D3D2B0D0A0000000D0A7061FE
:102A40007373776F726420636F6E6669726D206650
:102A500061696C65642E0D0A000000000D0A70614A
:102A60007373776F726420636F6E6669726D207323
:102A70007563636573732E0D0A0000006572726FD3
:102A8000723A207368656C6C2E72656164206D7596
:102A9000737420626520646566696E65640D0A0062
:102AA000436F6D6D616E64206E6F7420666F756E1E
:102AB000640D0A000D0A5761726E69673A20436F10
:102AC0006D6D616E6420697320746F6F206C6F6E22
:102AD000670D0A000D0A506C6561736520696E70A0
:102AE00075742070617373776F72643A0000000030
:102AF000402B000800000020940000008C08000813
:102B0000D42B0008940000208C0700009C080008CB
:102B100046280008391100084A2800080000000073
:102B200084280008311F000889280008962800081A
:102B3000C12800080D170008C52800080000000083
:102B40000000000000C2EB0B00140240000802402D
:102B50000010024040000000002000004000000083
:102B6000141000000010000004000000050C020C0E
:102B7000040C000000000240000802400004024073
:102B8000010000000020000000400000000C020CCA
:102B9000010C0000010000000020000000400000C7
:102BA000000201000D0E062828000000042900087C
:102BB000D42A00085C2A00083C2A0008D82800080B
:102BC000EC280008A02A0008B42A00087C2A000883
:042BD0000000000001
:04000005080001AD41
:00000001FF
